{
  "_format": "hh-sol-artifact-1",
  "contractName": "MineEscapeGameFi",
  "sourceName": "contracts/MineEscapeGameFi.sol",
  "abi": [
    {
      "inputs": [
        {
          "internalType": "address",
          "name": "_sttToken",
          "type": "address"
        }
      ],
      "stateMutability": "nonpayable",
      "type": "constructor"
    },
    {
      "anonymous": false,
      "inputs": [
        {
          "indexed": true,
          "internalType": "address",
          "name": "owner",
          "type": "address"
        },
        {
          "indexed": true,
          "internalType": "address",
          "name": "approved",
          "type": "address"
        },
        {
          "indexed": true,
          "internalType": "uint256",
          "name": "tokenId",
          "type": "uint256"
        }
      ],
      "name": "Approval",
      "type": "event"
    },
    {
      "anonymous": false,
      "inputs": [
        {
          "indexed": true,
          "internalType": "address",
          "name": "owner",
          "type": "address"
        },
        {
          "indexed": true,
          "internalType": "address",
          "name": "operator",
          "type": "address"
        },
        {
          "indexed": false,
          "internalType": "bool",
          "name": "approved",
          "type": "bool"
        }
      ],
      "name": "ApprovalForAll",
      "type": "event"
    },
    {
      "anonymous": false,
      "inputs": [
        {
          "indexed": true,
          "internalType": "address",
          "name": "player",
          "type": "address"
        },
        {
          "indexed": false,
          "internalType": "uint256",
          "name": "tokenId",
          "type": "uint256"
        }
      ],
      "name": "BadgeMinted",
      "type": "event"
    },
    {
      "anonymous": false,
      "inputs": [
        {
          "indexed": true,
          "internalType": "address",
          "name": "player",
          "type": "address"
        },
        {
          "indexed": false,
          "internalType": "uint256",
          "name": "level",
          "type": "uint256"
        }
      ],
      "name": "GameFailed",
      "type": "event"
    },
    {
      "anonymous": false,
      "inputs": [
        {
          "indexed": true,
          "internalType": "address",
          "name": "player",
          "type": "address"
        },
        {
          "indexed": false,
          "internalType": "uint256",
          "name": "level",
          "type": "uint256"
        }
      ],
      "name": "GameStarted",
      "type": "event"
    },
    {
      "anonymous": false,
      "inputs": [
        {
          "indexed": true,
          "internalType": "address",
          "name": "player",
          "type": "address"
        },
        {
          "indexed": false,
          "internalType": "uint256",
          "name": "gems",
          "type": "uint256"
        },
        {
          "indexed": false,
          "internalType": "uint256",
          "name": "tokens",
          "type": "uint256"
        }
      ],
      "name": "GemsConverted",
      "type": "event"
    },
    {
      "anonymous": false,
      "inputs": [
        {
          "indexed": true,
          "internalType": "address",
          "name": "player",
          "type": "address"
        },
        {
          "indexed": false,
          "internalType": "uint256",
          "name": "level",
          "type": "uint256"
        },
        {
          "indexed": false,
          "internalType": "uint256",
          "name": "gems",
          "type": "uint256"
        }
      ],
      "name": "LevelCompleted",
      "type": "event"
    },
    {
      "anonymous": false,
      "inputs": [
        {
          "indexed": true,
          "internalType": "address",
          "name": "previousOwner",
          "type": "address"
        },
        {
          "indexed": true,
          "internalType": "address",
          "name": "newOwner",
          "type": "address"
        }
      ],
      "name": "OwnershipTransferred",
      "type": "event"
    },
    {
      "anonymous": false,
      "inputs": [
        {
          "indexed": true,
          "internalType": "address",
          "name": "from",
          "type": "address"
        },
        {
          "indexed": true,
          "internalType": "address",
          "name": "to",
          "type": "address"
        },
        {
          "indexed": true,
          "internalType": "uint256",
          "name": "tokenId",
          "type": "uint256"
        }
      ],
      "name": "Transfer",
      "type": "event"
    },
    {
      "inputs": [],
      "name": "GEMS_TO_TOKEN_RATE",
      "outputs": [
        {
          "internalType": "uint256",
          "name": "",
          "type": "uint256"
        }
      ],
      "stateMutability": "view",
      "type": "function"
    },
    {
      "inputs": [],
      "name": "MAX_LEVELS",
      "outputs": [
        {
          "internalType": "uint256",
          "name": "",
          "type": "uint256"
        }
      ],
      "stateMutability": "view",
      "type": "function"
    },
    {
      "inputs": [
        {
          "internalType": "address",
          "name": "to",
          "type": "address"
        },
        {
          "internalType": "uint256",
          "name": "tokenId",
          "type": "uint256"
        }
      ],
      "name": "approve",
      "outputs": [],
      "stateMutability": "nonpayable",
      "type": "function"
    },
    {
      "inputs": [
        {
          "internalType": "address",
          "name": "owner",
          "type": "address"
        }
      ],
      "name": "balanceOf",
      "outputs": [
        {
          "internalType": "uint256",
          "name": "",
          "type": "uint256"
        }
      ],
      "stateMutability": "view",
      "type": "function"
    },
    {
      "inputs": [
        {
          "internalType": "uint256",
          "name": "gems",
          "type": "uint256"
        }
      ],
      "name": "completeLevel",
      "outputs": [],
      "stateMutability": "nonpayable",
      "type": "function"
    },
    {
      "inputs": [],
      "name": "exitGame",
      "outputs": [],
      "stateMutability": "nonpayable",
      "type": "function"
    },
    {
      "inputs": [],
      "name": "failGame",
      "outputs": [],
      "stateMutability": "nonpayable",
      "type": "function"
    },
    {
      "inputs": [
        {
          "internalType": "address",
          "name": "",
          "type": "address"
        }
      ],
      "name": "gameSessions",
      "outputs": [
        {
          "internalType": "uint256",
          "name": "currentLevel",
          "type": "uint256"
        },
        {
          "internalType": "uint256",
          "name": "gemsCollected",
          "type": "uint256"
        },
        {
          "internalType": "bool",
          "name": "isActive",
          "type": "bool"
        },
        {
          "internalType": "uint256",
          "name": "totalTokensSpent",
          "type": "uint256"
        }
      ],
      "stateMutability": "view",
      "type": "function"
    },
    {
      "inputs": [
        {
          "internalType": "uint256",
          "name": "tokenId",
          "type": "uint256"
        }
      ],
      "name": "getApproved",
      "outputs": [
        {
          "internalType": "address",
          "name": "",
          "type": "address"
        }
      ],
      "stateMutability": "view",
      "type": "function"
    },
    {
      "inputs": [
        {
          "internalType": "address",
          "name": "player",
          "type": "address"
        }
      ],
      "name": "getGameSession",
      "outputs": [
        {
          "components": [
            {
              "internalType": "uint256",
              "name": "currentLevel",
              "type": "uint256"
            },
            {
              "internalType": "uint256",
              "name": "gemsCollected",
              "type": "uint256"
            },
            {
              "internalType": "bool",
              "name": "isActive",
              "type": "bool"
            },
            {
              "internalType": "uint256",
              "name": "totalTokensSpent",
              "type": "uint256"
            }
          ],
          "internalType": "struct MineEscapeGameFi.GameSession",
          "name": "",
          "type": "tuple"
        }
      ],
      "stateMutability": "view",
      "type": "function"
    },
    {
      "inputs": [],
      "name": "getLeaderboard",
      "outputs": [
        {
          "components": [
            {
              "internalType": "address",
              "name": "player",
              "type": "address"
            },
            {
              "internalType": "uint256",
              "name": "maxLevel",
              "type": "uint256"
            },
            {
              "internalType": "uint256",
              "name": "totalGems",
              "type": "uint256"
            },
            {
              "internalType": "uint256",
              "name": "timestamp",
              "type": "uint256"
            }
          ],
          "internalType": "struct MineEscapeGameFi.LeaderboardEntry[]",
          "name": "",
          "type": "tuple[]"
        }
      ],
      "stateMutability": "view",
      "type": "function"
    },
    {
      "inputs": [
        {
          "internalType": "uint256",
          "name": "level",
          "type": "uint256"
        }
      ],
      "name": "getLevelCost",
      "outputs": [
        {
          "internalType": "uint256",
          "name": "",
          "type": "uint256"
        }
      ],
      "stateMutability": "view",
      "type": "function"
    },
    {
      "inputs": [
        {
          "internalType": "address",
          "name": "",
          "type": "address"
        }
      ],
      "name": "hasCompletionBadge",
      "outputs": [
        {
          "internalType": "bool",
          "name": "",
          "type": "bool"
        }
      ],
      "stateMutability": "view",
      "type": "function"
    },
    {
      "inputs": [
        {
          "internalType": "address",
          "name": "owner",
          "type": "address"
        },
        {
          "internalType": "address",
          "name": "operator",
          "type": "address"
        }
      ],
      "name": "isApprovedForAll",
      "outputs": [
        {
          "internalType": "bool",
          "name": "",
          "type": "bool"
        }
      ],
      "stateMutability": "view",
      "type": "function"
    },
    {
      "inputs": [
        {
          "internalType": "uint256",
          "name": "",
          "type": "uint256"
        }
      ],
      "name": "leaderboard",
      "outputs": [
        {
          "internalType": "address",
          "name": "player",
          "type": "address"
        },
        {
          "internalType": "uint256",
          "name": "maxLevel",
          "type": "uint256"
        },
        {
          "internalType": "uint256",
          "name": "totalGems",
          "type": "uint256"
        },
        {
          "internalType": "uint256",
          "name": "timestamp",
          "type": "uint256"
        }
      ],
      "stateMutability": "view",
      "type": "function"
    },
    {
      "inputs": [
        {
          "internalType": "uint256",
          "name": "",
          "type": "uint256"
        }
      ],
      "name": "levelEntryCosts",
      "outputs": [
        {
          "internalType": "uint256",
          "name": "",
          "type": "uint256"
        }
      ],
      "stateMutability": "view",
      "type": "function"
    },
    {
      "inputs": [],
      "name": "name",
      "outputs": [
        {
          "internalType": "string",
          "name": "",
          "type": "string"
        }
      ],
      "stateMutability": "view",
      "type": "function"
    },
    {
      "inputs": [],
      "name": "owner",
      "outputs": [
        {
          "internalType": "address",
          "name": "",
          "type": "address"
        }
      ],
      "stateMutability": "view",
      "type": "function"
    },
    {
      "inputs": [
        {
          "internalType": "uint256",
          "name": "tokenId",
          "type": "uint256"
        }
      ],
      "name": "ownerOf",
      "outputs": [
        {
          "internalType": "address",
          "name": "",
          "type": "address"
        }
      ],
      "stateMutability": "view",
      "type": "function"
    },
    {
      "inputs": [],
      "name": "renounceOwnership",
      "outputs": [],
      "stateMutability": "nonpayable",
      "type": "function"
    },
    {
      "inputs": [
        {
          "internalType": "address",
          "name": "from",
          "type": "address"
        },
        {
          "internalType": "address",
          "name": "to",
          "type": "address"
        },
        {
          "internalType": "uint256",
          "name": "tokenId",
          "type": "uint256"
        }
      ],
      "name": "safeTransferFrom",
      "outputs": [],
      "stateMutability": "nonpayable",
      "type": "function"
    },
    {
      "inputs": [
        {
          "internalType": "address",
          "name": "from",
          "type": "address"
        },
        {
          "internalType": "address",
          "name": "to",
          "type": "address"
        },
        {
          "internalType": "uint256",
          "name": "tokenId",
          "type": "uint256"
        },
        {
          "internalType": "bytes",
          "name": "data",
          "type": "bytes"
        }
      ],
      "name": "safeTransferFrom",
      "outputs": [],
      "stateMutability": "nonpayable",
      "type": "function"
    },
    {
      "inputs": [
        {
          "internalType": "address",
          "name": "operator",
          "type": "address"
        },
        {
          "internalType": "bool",
          "name": "approved",
          "type": "bool"
        }
      ],
      "name": "setApprovalForAll",
      "outputs": [],
      "stateMutability": "nonpayable",
      "type": "function"
    },
    {
      "inputs": [
        {
          "internalType": "uint256",
          "name": "level",
          "type": "uint256"
        }
      ],
      "name": "startLevel",
      "outputs": [],
      "stateMutability": "nonpayable",
      "type": "function"
    },
    {
      "inputs": [],
      "name": "sttToken",
      "outputs": [
        {
          "internalType": "contract IERC20",
          "name": "",
          "type": "address"
        }
      ],
      "stateMutability": "view",
      "type": "function"
    },
    {
      "inputs": [
        {
          "internalType": "bytes4",
          "name": "interfaceId",
          "type": "bytes4"
        }
      ],
      "name": "supportsInterface",
      "outputs": [
        {
          "internalType": "bool",
          "name": "",
          "type": "bool"
        }
      ],
      "stateMutability": "view",
      "type": "function"
    },
    {
      "inputs": [],
      "name": "symbol",
      "outputs": [
        {
          "internalType": "string",
          "name": "",
          "type": "string"
        }
      ],
      "stateMutability": "view",
      "type": "function"
    },
    {
      "inputs": [
        {
          "internalType": "uint256",
          "name": "tokenId",
          "type": "uint256"
        }
      ],
      "name": "tokenURI",
      "outputs": [
        {
          "internalType": "string",
          "name": "",
          "type": "string"
        }
      ],
      "stateMutability": "view",
      "type": "function"
    },
    {
      "inputs": [
        {
          "internalType": "address",
          "name": "from",
          "type": "address"
        },
        {
          "internalType": "address",
          "name": "to",
          "type": "address"
        },
        {
          "internalType": "uint256",
          "name": "tokenId",
          "type": "uint256"
        }
      ],
      "name": "transferFrom",
      "outputs": [],
      "stateMutability": "nonpayable",
      "type": "function"
    },
    {
      "inputs": [
        {
          "internalType": "address",
          "name": "newOwner",
          "type": "address"
        }
      ],
      "name": "transferOwnership",
      "outputs": [],
      "stateMutability": "nonpayable",
      "type": "function"
    }
  ],
  "bytecode": "0x610120604052670de0b6b3a76400006080908152671bc16d674ec8000060a0526729a2241af62c000060c052673782dace9d90000060e052674563918244f40000610100526200005490600b90600562000188565b506001600c553480156200006757600080fd5b50604051620026a0380380620026a08339810160408190526200008a91620001fa565b6040518060400160405280601081526020016f4d696e6545736361706520426164676560801b8152506040518060400160405280600381526020016226a2a160e91b8152508160009081620000e09190620002d1565b506001620000ef8282620002d1565b5050506200010c620001066200013260201b60201c565b62000136565b600780546001600160a01b0319166001600160a01b03929092169190911790556200039d565b3390565b600680546001600160a01b038381166001600160a01b0319831681179093556040519116919082907f8be0079c531659141344cd1fd0a4f28419497f9722a3daafe3b4186f6b6457e090600090a35050565b828054828255906000526020600020908101928215620001d1579160200282015b82811115620001d157825182906001600160401b0316905591602001919060010190620001a9565b50620001df929150620001e3565b5090565b5b80821115620001df5760008155600101620001e4565b6000602082840312156200020d57600080fd5b81516001600160a01b03811681146200022557600080fd5b9392505050565b634e487b7160e01b600052604160045260246000fd5b600181811c908216806200025757607f821691505b6020821081036200027857634e487b7160e01b600052602260045260246000fd5b50919050565b601f821115620002cc57600081815260208120601f850160051c81016020861015620002a75750805b601f850160051c820191505b81811015620002c857828155600101620002b3565b5050505b505050565b81516001600160401b03811115620002ed57620002ed6200022c565b6200030581620002fe845462000242565b846200027e565b602080601f8311600181146200033d5760008415620003245750858301515b600019600386901b1c1916600185901b178555620002c8565b600085815260208120601f198616915b828110156200036e578886015182559484019460019091019084016200034d565b50858210156200038d5787850151600019600388901b60f8161c191681555b5050505050600190811b01905550565b6122f380620003ad6000396000f3fe608060405234801561001057600080fd5b50600436106101da5760003560e01c80636702c7bf1161010457806394949374116100a2578063bf36839911610071578063bf3683991461045d578063c87b56dd1461049a578063e985e9c5146104ad578063f2fde38b146104c057600080fd5b8063949493741461041c57806395d89b411461042f578063a22cb46514610437578063b88d4fde1461044a57600080fd5b8063715018a6116100de578063715018a6146103dd5780637882bf7e146103e557806383c493e4146103f85780638da5cb5b1461040b57600080fd5b80636702c7bf146103ad5780636d763a6e146103b557806370a08231146103ca57600080fd5b806329aab8f51161017c5780636352211e1161014b5780636352211e1461030e57806364dbe2711461032157806366623429146103295780636662a7791461034c57600080fd5b806329aab8f51461028a5780632b6e4da0146102d25780633d05d1ea146102f357806342842e0e146102fb57600080fd5b8063081812fc116101b8578063081812fc14610226578063095ea7b314610251578063220e38951461026457806323b872dd1461027757600080fd5b806301ffc9a7146101df5780630544a1fe1461020757806306fdde0314610211575b600080fd5b6101f26101ed366004611ce9565b6104d3565b60405190151581526020015b60405180910390f35b61020f610525565b005b6102196105c4565b6040516101fe9190611d56565b610239610234366004611d69565b610656565b6040516001600160a01b0390911681526020016101fe565b61020f61025f366004611d9e565b61067d565b61020f610272366004611d69565b610792565b61020f610285366004611dc8565b610b17565b61029d610298366004611e04565b610b48565b6040516101fe919081518152602080830151908201526040808301511515908201526060918201519181019190915260800190565b6102e56102e0366004611d69565b610bc8565b6040519081526020016101fe565b6102e5600a81565b61020f610309366004611dc8565b610c47565b61023961031c366004611d69565b610c62565b61020f610cc2565b6101f2610337366004611e04565b60096020526000908152604090205460ff1681565b61038761035a366004611e04565b60086020526000908152604090208054600182015460028301546003909301549192909160ff9091169084565b6040805194855260208501939093529015159183019190915260608201526080016101fe565b6102e5600581565b6103bd610e19565b6040516101fe9190611e1f565b6102e56103d8366004611e04565b610ea3565b61020f610f29565b600754610239906001600160a01b031681565b6102e5610406366004611d69565b610f3d565b6006546001600160a01b0316610239565b61020f61042a366004611d69565b610f5e565b6102196111a8565b61020f610445366004611e9a565b6111b7565b61020f610458366004611ee7565b6111c6565b61047061046b366004611d69565b6111fe565b604080516001600160a01b03909516855260208501939093529183015260608201526080016101fe565b6102196104a8366004611d69565b611242565b6101f26104bb366004611fc3565b6112b6565b61020f6104ce366004611e04565b6112e4565b60006001600160e01b031982166380ac58cd60e01b148061050457506001600160e01b03198216635b5e139f60e01b145b8061051f57506301ffc9a760e01b6001600160e01b03198316145b92915050565b336000908152600860205260409020600281015460ff166105615760405162461bcd60e51b815260040161055890611ff6565b60405180910390fd5b805460405190815233907f8a603f4bd6f1035a99631226b8759fbe66502f137ce36996b9822ee09426c7af9060200160405180910390a2503360009081526008602052604081208181556001810182905560028101805460ff1916905560030155565b6060600080546105d390612026565b80601f01602080910402602001604051908101604052809291908181526020018280546105ff90612026565b801561064c5780601f106106215761010080835404028352916020019161064c565b820191906000526020600020905b81548152906001019060200180831161062f57829003601f168201915b5050505050905090565b60006106618261135d565b506000908152600460205260409020546001600160a01b031690565b600061068882610c62565b9050806001600160a01b0316836001600160a01b0316036106f55760405162461bcd60e51b815260206004820152602160248201527f4552433732313a20617070726f76616c20746f2063757272656e74206f776e656044820152603960f91b6064820152608401610558565b336001600160a01b0382161480610711575061071181336112b6565b6107835760405162461bcd60e51b815260206004820152603d60248201527f4552433732313a20617070726f76652063616c6c6572206973206e6f7420746f60448201527f6b656e206f776e6572206f7220617070726f76656420666f7220616c6c0000006064820152608401610558565b61078d83836113bc565b505050565b600181101580156107a4575060058111155b6107e05760405162461bcd60e51b815260206004820152600d60248201526c125b9d985b1a59081b195d995b609a1b6044820152606401610558565b806001148061080757506107f5600182612076565b33600090815260086020526040902054145b6108535760405162461bcd60e51b815260206004820152601a60248201527f4d7573742070726f67726573732073657175656e7469616c6c790000000000006044820152606401610558565b600b610860600183612076565b8154811061087057610870612089565b6000918252602090912001546007546040516370a0823160e01b81523360048201526001600160a01b03909116906370a0823190602401602060405180830381865afa1580156108c4573d6000803e3d6000fd5b505050506040513d601f19601f820116820180604052508101906108e8919061209f565b10156109365760405162461bcd60e51b815260206004820152601860248201527f496e73756666696369656e74205354542062616c616e636500000000000000006044820152606401610558565b6007546001600160a01b03166323b872dd3330600b610956600187612076565b8154811061096657610966612089565b6000918252602090912001546040516001600160e01b031960e086901b1681526001600160a01b03938416600482015292909116602483015260448201526064016020604051808303816000875af11580156109c6573d6000803e3d6000fd5b505050506040513d601f19601f820116820180604052508101906109ea91906120b8565b5080600103610a7c5760405180608001604052806001815260200160008152602001600115158152602001600b600081548110610a2957610a29612089565b600091825260208083209190910154909252338152600882526040908190208351815591830151600183015582015160028201805460ff1916911515919091179055606090910151600390910155610adf565b336000908152600860205260409020819055600b610a9b600183612076565b81548110610aab57610aab612089565b6000918252602080832090910154338352600890915260408220600301805491929091610ad99084906120d5565b90915550505b60405181815233907fea32a03505fd9f04d664676d72295a86c5fb0465e69654751907ca305bc1d1c79060200160405180910390a250565b610b21338261142a565b610b3d5760405162461bcd60e51b8152600401610558906120e8565b61078d838383611489565b610b7560405180608001604052806000815260200160008152602001600015158152602001600081525090565b506001600160a01b0316600090815260086020908152604091829020825160808101845281548152600182015492810192909252600281015460ff16151592820192909252600390910154606082015290565b600060018210158015610bdc575060058211155b610c185760405162461bcd60e51b815260206004820152600d60248201526c125b9d985b1a59081b195d995b609a1b6044820152606401610558565b600b610c25600184612076565b81548110610c3557610c35612089565b90600052602060002001549050919050565b61078d838383604051806020016040528060008152506111c6565b6000818152600260205260408120546001600160a01b03168061051f5760405162461bcd60e51b8152602060048201526018602482015277115490cdcc8c4e881a5b9d985b1a59081d1bdad95b88125160421b6044820152606401610558565b336000908152600860205260409020600281015460ff16610cf55760405162461bcd60e51b815260040161055890611ff6565b6000600a8260010154610d089190612135565b610d1a90670de0b6b3a7640000612157565b90508015610dd95760075460405163a9059cbb60e01b8152336004820152602481018390526001600160a01b039091169063a9059cbb906044016020604051808303816000875af1158015610d73573d6000803e3d6000fd5b505050506040513d601f19601f82011682018060405250810190610d9791906120b8565b506001820154604080519182526020820183905233917f5fb252336e85a30ebdcb52203366687453245c7e99bb9d0f5f468b12d18d06b3910160405180910390a25b610dec33836000015484600101546115ed565b50503360009081526008602052604081208181556001810182905560028101805460ff1916905560030155565b6060600a805480602002602001604051908101604052809291908181526020016000905b82821015610e9a576000848152602090819020604080516080810182526004860290920180546001600160a01b03168352600180820154848601526002820154928401929092526003015460608301529083529092019101610e3d565b50505050905090565b60006001600160a01b038216610f0d5760405162461bcd60e51b815260206004820152602960248201527f4552433732313a2061646472657373207a65726f206973206e6f7420612076616044820152683634b21037bbb732b960b91b6064820152608401610558565b506001600160a01b031660009081526003602052604090205490565b610f3161172f565b610f3b6000611789565b565b600b8181548110610f4d57600080fd5b600091825260209091200154905081565b336000908152600860205260409020600281015460ff16610f915760405162461bcd60e51b815260040161055890611ff6565b81816001016000828254610fa591906120d5565b9091555050805460041901611167573360009081526009602052604090205460ff1661104557610fd733600c546117db565b3360008181526009602052604090819020805460ff19166001179055600c5490517fc5e5b314108c1f776c2302351b8278910ddb812b122b2717b1bc973146145e9a916110279190815260200190565b60405180910390a2600c805490600061103f8361216e565b91905055505b6000600a82600101546110589190612135565b61106a90670de0b6b3a7640000612157565b905080156111295760075460405163a9059cbb60e01b8152336004820152602481018390526001600160a01b039091169063a9059cbb906044016020604051808303816000875af11580156110c3573d6000803e3d6000fd5b505050506040513d601f19601f820116820180604052508101906110e791906120b8565b506001820154604080519182526020820183905233917f5fb252336e85a30ebdcb52203366687453245c7e99bb9d0f5f468b12d18d06b3910160405180910390a25b61113c33836000015484600101546115ed565b503360009081526008602052604081208181556001810182905560028101805460ff19169055600301555b8054604080519182526020820184905233917f3d874470dba0fad010caa4b42a98890f3760e7f6cf8dbfe0db97a6a0f078031b910160405180910390a25050565b6060600180546105d390612026565b6111c2338383611966565b5050565b6111d0338361142a565b6111ec5760405162461bcd60e51b8152600401610558906120e8565b6111f884848484611a34565b50505050565b600a818154811061120e57600080fd5b600091825260209091206004909102018054600182015460028301546003909301546001600160a01b039092169350919084565b606061124d8261135d565b600061126460408051602081019091526000815290565b9050600081511161128457604051806020016040528060008152506112af565b8061128e84611a67565b60405160200161129f929190612187565b6040516020818303038152906040525b9392505050565b6001600160a01b03918216600090815260056020908152604080832093909416825291909152205460ff1690565b6112ec61172f565b6001600160a01b0381166113515760405162461bcd60e51b815260206004820152602660248201527f4f776e61626c653a206e6577206f776e657220697320746865207a65726f206160448201526564647265737360d01b6064820152608401610558565b61135a81611789565b50565b6000818152600260205260409020546001600160a01b031661135a5760405162461bcd60e51b8152602060048201526018602482015277115490cdcc8c4e881a5b9d985b1a59081d1bdad95b88125160421b6044820152606401610558565b600081815260046020526040902080546001600160a01b0319166001600160a01b03841690811790915581906113f182610c62565b6001600160a01b03167f8c5be1e5ebec7d5bd14f71427d1e84f3dd0314c0f7b2291e5b200ac8c7c3b92560405160405180910390a45050565b60008061143683610c62565b9050806001600160a01b0316846001600160a01b0316148061145d575061145d81856112b6565b806114815750836001600160a01b031661147684610656565b6001600160a01b0316145b949350505050565b826001600160a01b031661149c82610c62565b6001600160a01b0316146114c25760405162461bcd60e51b8152600401610558906121b6565b6001600160a01b0382166115245760405162461bcd60e51b8152602060048201526024808201527f4552433732313a207472616e7366657220746f20746865207a65726f206164646044820152637265737360e01b6064820152608401610558565b826001600160a01b031661153782610c62565b6001600160a01b03161461155d5760405162461bcd60e51b8152600401610558906121b6565b600081815260046020908152604080832080546001600160a01b03199081169091556001600160a01b0387811680865260038552838620805460001901905590871680865283862080546001019055868652600290945282852080549092168417909155905184937fddf252ad1be2c89b69c2b068fc378daa952ba7f163c4a11628f55a4df523b3ef91a4505050565b604080516080810182526001600160a01b038581168252602082018581529282018481524260608401908152600a8054600181018255600082905294517fc65a7bb8d6351c1cf70c95a316cc6a92839c986682d98bc35f958f4883f9d2a8600490960295860180546001600160a01b031916919095161790935593517fc65a7bb8d6351c1cf70c95a316cc6a92839c986682d98bc35f958f4883f9d2a9840155517fc65a7bb8d6351c1cf70c95a316cc6a92839c986682d98bc35f958f4883f9d2aa83015591517fc65a7bb8d6351c1cf70c95a316cc6a92839c986682d98bc35f958f4883f9d2ab90910155546064101561078d57600a8054806116f3576116f36121fb565b60008281526020812060046000199093019283020180546001600160a01b03191681556001810182905560028101829055600301559055505050565b6006546001600160a01b03163314610f3b5760405162461bcd60e51b815260206004820181905260248201527f4f776e61626c653a2063616c6c6572206973206e6f7420746865206f776e65726044820152606401610558565b600680546001600160a01b038381166001600160a01b0319831681179093556040519116919082907f8be0079c531659141344cd1fd0a4f28419497f9722a3daafe3b4186f6b6457e090600090a35050565b6001600160a01b0382166118315760405162461bcd60e51b815260206004820181905260248201527f4552433732313a206d696e7420746f20746865207a65726f20616464726573736044820152606401610558565b6000818152600260205260409020546001600160a01b0316156118965760405162461bcd60e51b815260206004820152601c60248201527f4552433732313a20746f6b656e20616c7265616479206d696e746564000000006044820152606401610558565b6000818152600260205260409020546001600160a01b0316156118fb5760405162461bcd60e51b815260206004820152601c60248201527f4552433732313a20746f6b656e20616c7265616479206d696e746564000000006044820152606401610558565b6001600160a01b038216600081815260036020908152604080832080546001019055848352600290915280822080546001600160a01b0319168417905551839291907fddf252ad1be2c89b69c2b068fc378daa952ba7f163c4a11628f55a4df523b3ef908290a45050565b816001600160a01b0316836001600160a01b0316036119c75760405162461bcd60e51b815260206004820152601960248201527f4552433732313a20617070726f766520746f2063616c6c6572000000000000006044820152606401610558565b6001600160a01b03838116600081815260056020908152604080832094871680845294825291829020805460ff191686151590811790915591519182527f17307eab39ab6107e8899845ad3d59bd9653f200f220920489ca2b5937696c31910160405180910390a3505050565b611a3f848484611489565b611a4b84848484611afa565b6111f85760405162461bcd60e51b815260040161055890612211565b60606000611a7483611bfb565b600101905060008167ffffffffffffffff811115611a9457611a94611ed1565b6040519080825280601f01601f191660200182016040528015611abe576020820181803683370190505b5090508181016020015b600019016f181899199a1a9b1b9c1cb0b131b232b360811b600a86061a8153600a8504945084611ac857509392505050565b60006001600160a01b0384163b15611bf057604051630a85bd0160e11b81526001600160a01b0385169063150b7a0290611b3e903390899088908890600401612263565b6020604051808303816000875af1925050508015611b79575060408051601f3d908101601f19168201909252611b76918101906122a0565b60015b611bd6573d808015611ba7576040519150601f19603f3d011682016040523d82523d6000602084013e611bac565b606091505b508051600003611bce5760405162461bcd60e51b815260040161055890612211565b805181602001fd5b6001600160e01b031916630a85bd0160e11b149050611481565b506001949350505050565b60008072184f03e93ff9f4daa797ed6e38ed64bf6a1f0160401b8310611c3a5772184f03e93ff9f4daa797ed6e38ed64bf6a1f0160401b830492506040015b6d04ee2d6d415b85acef81000000008310611c66576d04ee2d6d415b85acef8100000000830492506020015b662386f26fc100008310611c8457662386f26fc10000830492506010015b6305f5e1008310611c9c576305f5e100830492506008015b6127108310611cb057612710830492506004015b60648310611cc2576064830492506002015b600a831061051f5760010192915050565b6001600160e01b03198116811461135a57600080fd5b600060208284031215611cfb57600080fd5b81356112af81611cd3565b60005b83811015611d21578181015183820152602001611d09565b50506000910152565b60008151808452611d42816020860160208601611d06565b601f01601f19169290920160200192915050565b6020815260006112af6020830184611d2a565b600060208284031215611d7b57600080fd5b5035919050565b80356001600160a01b0381168114611d9957600080fd5b919050565b60008060408385031215611db157600080fd5b611dba83611d82565b946020939093013593505050565b600080600060608486031215611ddd57600080fd5b611de684611d82565b9250611df460208501611d82565b9150604084013590509250925092565b600060208284031215611e1657600080fd5b6112af82611d82565b602080825282518282018190526000919060409081850190868401855b82811015611e7f57815180516001600160a01b03168552868101518786015285810151868601526060908101519085015260809093019290850190600101611e3c565b5091979650505050505050565b801515811461135a57600080fd5b60008060408385031215611ead57600080fd5b611eb683611d82565b91506020830135611ec681611e8c565b809150509250929050565b634e487b7160e01b600052604160045260246000fd5b60008060008060808587031215611efd57600080fd5b611f0685611d82565b9350611f1460208601611d82565b925060408501359150606085013567ffffffffffffffff80821115611f3857600080fd5b818701915087601f830112611f4c57600080fd5b813581811115611f5e57611f5e611ed1565b604051601f8201601f19908116603f01168101908382118183101715611f8657611f86611ed1565b816040528281528a6020848701011115611f9f57600080fd5b82602086016020830137600060208483010152809550505050505092959194509250565b60008060408385031215611fd657600080fd5b611fdf83611d82565b9150611fed60208401611d82565b90509250929050565b60208082526016908201527527379030b1ba34bb329033b0b6b29039b2b9b9b4b7b760511b604082015260600190565b600181811c9082168061203a57607f821691505b60208210810361205a57634e487b7160e01b600052602260045260246000fd5b50919050565b634e487b7160e01b600052601160045260246000fd5b8181038181111561051f5761051f612060565b634e487b7160e01b600052603260045260246000fd5b6000602082840312156120b157600080fd5b5051919050565b6000602082840312156120ca57600080fd5b81516112af81611e8c565b8082018082111561051f5761051f612060565b6020808252602d908201527f4552433732313a2063616c6c6572206973206e6f7420746f6b656e206f776e6560408201526c1c881bdc88185c1c1c9bdd9959609a1b606082015260800190565b60008261215257634e487b7160e01b600052601260045260246000fd5b500490565b808202811582820484141761051f5761051f612060565b60006001820161218057612180612060565b5060010190565b60008351612199818460208801611d06565b8351908301906121ad818360208801611d06565b01949350505050565b60208082526025908201527f4552433732313a207472616e736665722066726f6d20696e636f72726563742060408201526437bbb732b960d91b606082015260800190565b634e487b7160e01b600052603160045260246000fd5b60208082526032908201527f4552433732313a207472616e7366657220746f206e6f6e20455243373231526560408201527131b2b4bb32b91034b6b83632b6b2b73a32b960711b606082015260800190565b6001600160a01b038581168252841660208201526040810183905260806060820181905260009061229690830184611d2a565b9695505050505050565b6000602082840312156122b257600080fd5b81516112af81611cd356fea26469706673582212204c6f5447c3617761e7cf3c635b6617a25d3b165cd2667c46e0afaf41ff88e0f364736f6c63430008130033",
  "linkReferences": {},
  "deployedLinkReferences": {}
}