{
  "_format": "hh-sol-artifact-1",
  "contractName": "MineEscapeGameFi",
  "sourceName": "contracts/MineEscapeGameFi.sol",
  "abi": [
    {
      "inputs": [
        {
          "internalType": "address",
          "name": "_sttToken",
          "type": "address"
        }
      ],
      "stateMutability": "nonpayable",
      "type": "constructor"
    },
    {
      "anonymous": false,
      "inputs": [
        {
          "indexed": true,
          "internalType": "address",
          "name": "owner",
          "type": "address"
        },
        {
          "indexed": true,
          "internalType": "address",
          "name": "approved",
          "type": "address"
        },
        {
          "indexed": true,
          "internalType": "uint256",
          "name": "tokenId",
          "type": "uint256"
        }
      ],
      "name": "Approval",
      "type": "event"
    },
    {
      "anonymous": false,
      "inputs": [
        {
          "indexed": true,
          "internalType": "address",
          "name": "owner",
          "type": "address"
        },
        {
          "indexed": true,
          "internalType": "address",
          "name": "operator",
          "type": "address"
        },
        {
          "indexed": false,
          "internalType": "bool",
          "name": "approved",
          "type": "bool"
        }
      ],
      "name": "ApprovalForAll",
      "type": "event"
    },
    {
      "anonymous": false,
      "inputs": [
        {
          "indexed": true,
          "internalType": "address",
          "name": "player",
          "type": "address"
        },
        {
          "indexed": false,
          "internalType": "uint256",
          "name": "tokenId",
          "type": "uint256"
        }
      ],
      "name": "BadgeMinted",
      "type": "event"
    },
    {
      "anonymous": false,
      "inputs": [
        {
          "indexed": true,
          "internalType": "address",
          "name": "player",
          "type": "address"
        },
        {
          "indexed": false,
          "internalType": "uint256",
          "name": "level",
          "type": "uint256"
        }
      ],
      "name": "GameFailed",
      "type": "event"
    },
    {
      "anonymous": false,
      "inputs": [
        {
          "indexed": true,
          "internalType": "address",
          "name": "player",
          "type": "address"
        },
        {
          "indexed": false,
          "internalType": "uint256",
          "name": "level",
          "type": "uint256"
        }
      ],
      "name": "GameStarted",
      "type": "event"
    },
    {
      "anonymous": false,
      "inputs": [
        {
          "indexed": true,
          "internalType": "address",
          "name": "player",
          "type": "address"
        },
        {
          "indexed": false,
          "internalType": "uint256",
          "name": "gems",
          "type": "uint256"
        },
        {
          "indexed": false,
          "internalType": "uint256",
          "name": "tokens",
          "type": "uint256"
        }
      ],
      "name": "GemsConverted",
      "type": "event"
    },
    {
      "anonymous": false,
      "inputs": [
        {
          "indexed": true,
          "internalType": "address",
          "name": "player",
          "type": "address"
        },
        {
          "indexed": false,
          "internalType": "uint256",
          "name": "level",
          "type": "uint256"
        },
        {
          "indexed": false,
          "internalType": "uint256",
          "name": "gems",
          "type": "uint256"
        }
      ],
      "name": "LevelCompleted",
      "type": "event"
    },
    {
      "anonymous": false,
      "inputs": [
        {
          "indexed": true,
          "internalType": "address",
          "name": "previousOwner",
          "type": "address"
        },
        {
          "indexed": true,
          "internalType": "address",
          "name": "newOwner",
          "type": "address"
        }
      ],
      "name": "OwnershipTransferred",
      "type": "event"
    },
    {
      "anonymous": false,
      "inputs": [
        {
          "indexed": true,
          "internalType": "address",
          "name": "from",
          "type": "address"
        },
        {
          "indexed": true,
          "internalType": "address",
          "name": "to",
          "type": "address"
        },
        {
          "indexed": true,
          "internalType": "uint256",
          "name": "tokenId",
          "type": "uint256"
        }
      ],
      "name": "Transfer",
      "type": "event"
    },
    {
      "inputs": [],
      "name": "GEMS_TO_TOKEN_RATE",
      "outputs": [
        {
          "internalType": "uint256",
          "name": "",
          "type": "uint256"
        }
      ],
      "stateMutability": "view",
      "type": "function"
    },
    {
      "inputs": [],
      "name": "MAX_LEVELS",
      "outputs": [
        {
          "internalType": "uint256",
          "name": "",
          "type": "uint256"
        }
      ],
      "stateMutability": "view",
      "type": "function"
    },
    {
      "inputs": [
        {
          "internalType": "address",
          "name": "to",
          "type": "address"
        },
        {
          "internalType": "uint256",
          "name": "tokenId",
          "type": "uint256"
        }
      ],
      "name": "approve",
      "outputs": [],
      "stateMutability": "nonpayable",
      "type": "function"
    },
    {
      "inputs": [
        {
          "internalType": "address",
          "name": "owner",
          "type": "address"
        }
      ],
      "name": "balanceOf",
      "outputs": [
        {
          "internalType": "uint256",
          "name": "",
          "type": "uint256"
        }
      ],
      "stateMutability": "view",
      "type": "function"
    },
    {
      "inputs": [
        {
          "internalType": "uint256",
          "name": "gems",
          "type": "uint256"
        }
      ],
      "name": "completeLevel",
      "outputs": [],
      "stateMutability": "nonpayable",
      "type": "function"
    },
    {
      "inputs": [
        {
          "internalType": "uint256",
          "name": "gems",
          "type": "uint256"
        }
      ],
      "name": "exitGame",
      "outputs": [],
      "stateMutability": "nonpayable",
      "type": "function"
    },
    {
      "inputs": [],
      "name": "failGame",
      "outputs": [],
      "stateMutability": "nonpayable",
      "type": "function"
    },
    {
      "inputs": [
        {
          "internalType": "address",
          "name": "",
          "type": "address"
        }
      ],
      "name": "gameSessions",
      "outputs": [
        {
          "internalType": "uint256",
          "name": "currentLevel",
          "type": "uint256"
        },
        {
          "internalType": "uint256",
          "name": "gemsCollected",
          "type": "uint256"
        },
        {
          "internalType": "bool",
          "name": "isActive",
          "type": "bool"
        },
        {
          "internalType": "uint256",
          "name": "totalTokensSpent",
          "type": "uint256"
        }
      ],
      "stateMutability": "view",
      "type": "function"
    },
    {
      "inputs": [
        {
          "internalType": "uint256",
          "name": "tokenId",
          "type": "uint256"
        }
      ],
      "name": "getApproved",
      "outputs": [
        {
          "internalType": "address",
          "name": "",
          "type": "address"
        }
      ],
      "stateMutability": "view",
      "type": "function"
    },
    {
      "inputs": [
        {
          "internalType": "address",
          "name": "player",
          "type": "address"
        }
      ],
      "name": "getGameSession",
      "outputs": [
        {
          "components": [
            {
              "internalType": "uint256",
              "name": "currentLevel",
              "type": "uint256"
            },
            {
              "internalType": "uint256",
              "name": "gemsCollected",
              "type": "uint256"
            },
            {
              "internalType": "bool",
              "name": "isActive",
              "type": "bool"
            },
            {
              "internalType": "uint256",
              "name": "totalTokensSpent",
              "type": "uint256"
            }
          ],
          "internalType": "struct MineEscapeGameFi.GameSession",
          "name": "",
          "type": "tuple"
        }
      ],
      "stateMutability": "view",
      "type": "function"
    },
    {
      "inputs": [],
      "name": "getLeaderboard",
      "outputs": [
        {
          "components": [
            {
              "internalType": "address",
              "name": "player",
              "type": "address"
            },
            {
              "internalType": "uint256",
              "name": "maxLevel",
              "type": "uint256"
            },
            {
              "internalType": "uint256",
              "name": "totalGems",
              "type": "uint256"
            },
            {
              "internalType": "uint256",
              "name": "timestamp",
              "type": "uint256"
            }
          ],
          "internalType": "struct MineEscapeGameFi.LeaderboardEntry[]",
          "name": "",
          "type": "tuple[]"
        }
      ],
      "stateMutability": "view",
      "type": "function"
    },
    {
      "inputs": [
        {
          "internalType": "uint256",
          "name": "level",
          "type": "uint256"
        }
      ],
      "name": "getLevelCost",
      "outputs": [
        {
          "internalType": "uint256",
          "name": "",
          "type": "uint256"
        }
      ],
      "stateMutability": "view",
      "type": "function"
    },
    {
      "inputs": [
        {
          "internalType": "address",
          "name": "",
          "type": "address"
        }
      ],
      "name": "hasCompletionBadge",
      "outputs": [
        {
          "internalType": "bool",
          "name": "",
          "type": "bool"
        }
      ],
      "stateMutability": "view",
      "type": "function"
    },
    {
      "inputs": [
        {
          "internalType": "address",
          "name": "owner",
          "type": "address"
        },
        {
          "internalType": "address",
          "name": "operator",
          "type": "address"
        }
      ],
      "name": "isApprovedForAll",
      "outputs": [
        {
          "internalType": "bool",
          "name": "",
          "type": "bool"
        }
      ],
      "stateMutability": "view",
      "type": "function"
    },
    {
      "inputs": [
        {
          "internalType": "uint256",
          "name": "",
          "type": "uint256"
        }
      ],
      "name": "leaderboard",
      "outputs": [
        {
          "internalType": "address",
          "name": "player",
          "type": "address"
        },
        {
          "internalType": "uint256",
          "name": "maxLevel",
          "type": "uint256"
        },
        {
          "internalType": "uint256",
          "name": "totalGems",
          "type": "uint256"
        },
        {
          "internalType": "uint256",
          "name": "timestamp",
          "type": "uint256"
        }
      ],
      "stateMutability": "view",
      "type": "function"
    },
    {
      "inputs": [
        {
          "internalType": "uint256",
          "name": "",
          "type": "uint256"
        }
      ],
      "name": "levelEntryCosts",
      "outputs": [
        {
          "internalType": "uint256",
          "name": "",
          "type": "uint256"
        }
      ],
      "stateMutability": "view",
      "type": "function"
    },
    {
      "inputs": [],
      "name": "name",
      "outputs": [
        {
          "internalType": "string",
          "name": "",
          "type": "string"
        }
      ],
      "stateMutability": "view",
      "type": "function"
    },
    {
      "inputs": [],
      "name": "owner",
      "outputs": [
        {
          "internalType": "address",
          "name": "",
          "type": "address"
        }
      ],
      "stateMutability": "view",
      "type": "function"
    },
    {
      "inputs": [
        {
          "internalType": "uint256",
          "name": "tokenId",
          "type": "uint256"
        }
      ],
      "name": "ownerOf",
      "outputs": [
        {
          "internalType": "address",
          "name": "",
          "type": "address"
        }
      ],
      "stateMutability": "view",
      "type": "function"
    },
    {
      "inputs": [],
      "name": "renounceOwnership",
      "outputs": [],
      "stateMutability": "nonpayable",
      "type": "function"
    },
    {
      "inputs": [
        {
          "internalType": "address",
          "name": "from",
          "type": "address"
        },
        {
          "internalType": "address",
          "name": "to",
          "type": "address"
        },
        {
          "internalType": "uint256",
          "name": "tokenId",
          "type": "uint256"
        }
      ],
      "name": "safeTransferFrom",
      "outputs": [],
      "stateMutability": "nonpayable",
      "type": "function"
    },
    {
      "inputs": [
        {
          "internalType": "address",
          "name": "from",
          "type": "address"
        },
        {
          "internalType": "address",
          "name": "to",
          "type": "address"
        },
        {
          "internalType": "uint256",
          "name": "tokenId",
          "type": "uint256"
        },
        {
          "internalType": "bytes",
          "name": "data",
          "type": "bytes"
        }
      ],
      "name": "safeTransferFrom",
      "outputs": [],
      "stateMutability": "nonpayable",
      "type": "function"
    },
    {
      "inputs": [
        {
          "internalType": "address",
          "name": "operator",
          "type": "address"
        },
        {
          "internalType": "bool",
          "name": "approved",
          "type": "bool"
        }
      ],
      "name": "setApprovalForAll",
      "outputs": [],
      "stateMutability": "nonpayable",
      "type": "function"
    },
    {
      "inputs": [
        {
          "internalType": "uint256",
          "name": "level",
          "type": "uint256"
        }
      ],
      "name": "startLevel",
      "outputs": [],
      "stateMutability": "nonpayable",
      "type": "function"
    },
    {
      "inputs": [],
      "name": "sttToken",
      "outputs": [
        {
          "internalType": "contract IERC20",
          "name": "",
          "type": "address"
        }
      ],
      "stateMutability": "view",
      "type": "function"
    },
    {
      "inputs": [
        {
          "internalType": "bytes4",
          "name": "interfaceId",
          "type": "bytes4"
        }
      ],
      "name": "supportsInterface",
      "outputs": [
        {
          "internalType": "bool",
          "name": "",
          "type": "bool"
        }
      ],
      "stateMutability": "view",
      "type": "function"
    },
    {
      "inputs": [],
      "name": "symbol",
      "outputs": [
        {
          "internalType": "string",
          "name": "",
          "type": "string"
        }
      ],
      "stateMutability": "view",
      "type": "function"
    },
    {
      "inputs": [
        {
          "internalType": "uint256",
          "name": "tokenId",
          "type": "uint256"
        }
      ],
      "name": "tokenURI",
      "outputs": [
        {
          "internalType": "string",
          "name": "",
          "type": "string"
        }
      ],
      "stateMutability": "view",
      "type": "function"
    },
    {
      "inputs": [
        {
          "internalType": "address",
          "name": "from",
          "type": "address"
        },
        {
          "internalType": "address",
          "name": "to",
          "type": "address"
        },
        {
          "internalType": "uint256",
          "name": "tokenId",
          "type": "uint256"
        }
      ],
      "name": "transferFrom",
      "outputs": [],
      "stateMutability": "nonpayable",
      "type": "function"
    },
    {
      "inputs": [
        {
          "internalType": "address",
          "name": "newOwner",
          "type": "address"
        }
      ],
      "name": "transferOwnership",
      "outputs": [],
      "stateMutability": "nonpayable",
      "type": "function"
    }
  ],
  "bytecode": "0x61012060405267016345785d8a000060809081526702c68af0bb14000060a052670429d069189e000060c05267058d15e17628000060e0526706f05b59d3b20000610100526200005490600b90600562000188565b506001600c553480156200006757600080fd5b50604051620026c6380380620026c68339810160408190526200008a91620001fa565b6040518060400160405280601081526020016f4d696e6545736361706520426164676560801b8152506040518060400160405280600381526020016226a2a160e91b8152508160009081620000e09190620002d1565b506001620000ef8282620002d1565b5050506200010c620001066200013260201b60201c565b62000136565b600780546001600160a01b0319166001600160a01b03929092169190911790556200039d565b3390565b600680546001600160a01b038381166001600160a01b0319831681179093556040519116919082907f8be0079c531659141344cd1fd0a4f28419497f9722a3daafe3b4186f6b6457e090600090a35050565b828054828255906000526020600020908101928215620001d1579160200282015b82811115620001d157825182906001600160401b0316905591602001919060010190620001a9565b50620001df929150620001e3565b5090565b5b80821115620001df5760008155600101620001e4565b6000602082840312156200020d57600080fd5b81516001600160a01b03811681146200022557600080fd5b9392505050565b634e487b7160e01b600052604160045260246000fd5b600181811c908216806200025757607f821691505b6020821081036200027857634e487b7160e01b600052602260045260246000fd5b50919050565b601f821115620002cc57600081815260208120601f850160051c81016020861015620002a75750805b601f850160051c820191505b81811015620002c857828155600101620002b3565b5050505b505050565b81516001600160401b03811115620002ed57620002ed6200022c565b6200030581620002fe845462000242565b846200027e565b602080601f8311600181146200033d5760008415620003245750858301515b600019600386901b1c1916600185901b178555620002c8565b600085815260208120601f198616915b828110156200036e578886015182559484019460019091019084016200034d565b50858210156200038d5787850151600019600388901b60f8161c191681555b5050505050600190811b01905550565b61231980620003ad6000396000f3fe608060405234801561001057600080fd5b50600436106101da5760003560e01c80636d763a6e1161010457806395d89b41116100a2578063bf36839911610071578063bf36839914610468578063c87b56dd146104a5578063e985e9c5146104b8578063f2fde38b146104cb57600080fd5b806395d89b4114610427578063a22cb4651461042f578063ad38ed4b14610442578063b88d4fde1461045557600080fd5b80637882bf7e116100de5780637882bf7e146103dd57806383c493e4146103f05780638da5cb5b14610403578063949493741461041457600080fd5b80636d763a6e146103ad57806370a08231146103c2578063715018a6146103d557600080fd5b806329aab8f51161017c5780636352211e1161014b5780636352211e1461030e57806366623429146103215780636662a779146103445780636702c7bf146103a557600080fd5b806329aab8f51461028a5780632b6e4da0146102d25780633d05d1ea146102f357806342842e0e146102fb57600080fd5b8063081812fc116101b8578063081812fc14610226578063095ea7b314610251578063220e38951461026457806323b872dd1461027757600080fd5b806301ffc9a7146101df5780630544a1fe1461020757806306fdde0314610211575b600080fd5b6101f26101ed366004611d0f565b6104de565b60405190151581526020015b60405180910390f35b61020f610530565b005b6102196105cf565b6040516101fe9190611d7c565b610239610234366004611d8f565b610661565b6040516001600160a01b0390911681526020016101fe565b61020f61025f366004611dc4565b610688565b61020f610272366004611d8f565b61079d565b61020f610285366004611dee565b610b22565b61029d610298366004611e2a565b610b53565b6040516101fe919081518152602080830151908201526040808301511515908201526060918201519181019190915260800190565b6102e56102e0366004611d8f565b610bd3565b6040519081526020016101fe565b6102e5600a81565b61020f610309366004611dee565b610c52565b61023961031c366004611d8f565b610c6d565b6101f261032f366004611e2a565b60096020526000908152604090205460ff1681565b61037f610352366004611e2a565b60086020526000908152604090208054600182015460028301546003909301549192909160ff9091169084565b6040805194855260208501939093529015159183019190915260608201526080016101fe565b6102e5600581565b6103b5610ccd565b6040516101fe9190611e45565b6102e56103d0366004611e2a565b610d57565b61020f610ddd565b600754610239906001600160a01b031681565b6102e56103fe366004611d8f565b610df1565b6006546001600160a01b0316610239565b61020f610422366004611d8f565b610e12565b61021961105c565b61020f61043d366004611ec0565b61106b565b61020f610450366004611d8f565b61107a565b61020f610463366004611f0d565b6111ec565b61047b610476366004611d8f565b611224565b604080516001600160a01b03909516855260208501939093529183015260608201526080016101fe565b6102196104b3366004611d8f565b611268565b6101f26104c6366004611fe9565b6112dc565b61020f6104d9366004611e2a565b61130a565b60006001600160e01b031982166380ac58cd60e01b148061050f57506001600160e01b03198216635b5e139f60e01b145b8061052a57506301ffc9a760e01b6001600160e01b03198316145b92915050565b336000908152600860205260409020600281015460ff1661056c5760405162461bcd60e51b81526004016105639061201c565b60405180910390fd5b805460405190815233907f8a603f4bd6f1035a99631226b8759fbe66502f137ce36996b9822ee09426c7af9060200160405180910390a2503360009081526008602052604081208181556001810182905560028101805460ff1916905560030155565b6060600080546105de9061204c565b80601f016020809104026020016040519081016040528092919081815260200182805461060a9061204c565b80156106575780601f1061062c57610100808354040283529160200191610657565b820191906000526020600020905b81548152906001019060200180831161063a57829003601f168201915b5050505050905090565b600061066c82611383565b506000908152600460205260409020546001600160a01b031690565b600061069382610c6d565b9050806001600160a01b0316836001600160a01b0316036107005760405162461bcd60e51b815260206004820152602160248201527f4552433732313a20617070726f76616c20746f2063757272656e74206f776e656044820152603960f91b6064820152608401610563565b336001600160a01b038216148061071c575061071c81336112dc565b61078e5760405162461bcd60e51b815260206004820152603d60248201527f4552433732313a20617070726f76652063616c6c6572206973206e6f7420746f60448201527f6b656e206f776e6572206f7220617070726f76656420666f7220616c6c0000006064820152608401610563565b61079883836113e2565b505050565b600181101580156107af575060058111155b6107eb5760405162461bcd60e51b815260206004820152600d60248201526c125b9d985b1a59081b195d995b609a1b6044820152606401610563565b8060011480610812575061080060018261209c565b33600090815260086020526040902054145b61085e5760405162461bcd60e51b815260206004820152601a60248201527f4d7573742070726f67726573732073657175656e7469616c6c790000000000006044820152606401610563565b600b61086b60018361209c565b8154811061087b5761087b6120af565b6000918252602090912001546007546040516370a0823160e01b81523360048201526001600160a01b03909116906370a0823190602401602060405180830381865afa1580156108cf573d6000803e3d6000fd5b505050506040513d601f19601f820116820180604052508101906108f391906120c5565b10156109415760405162461bcd60e51b815260206004820152601860248201527f496e73756666696369656e74205354542062616c616e636500000000000000006044820152606401610563565b6007546001600160a01b03166323b872dd3330600b61096160018761209c565b81548110610971576109716120af565b6000918252602090912001546040516001600160e01b031960e086901b1681526001600160a01b03938416600482015292909116602483015260448201526064016020604051808303816000875af11580156109d1573d6000803e3d6000fd5b505050506040513d601f19601f820116820180604052508101906109f591906120de565b5080600103610a875760405180608001604052806001815260200160008152602001600115158152602001600b600081548110610a3457610a346120af565b600091825260208083209190910154909252338152600882526040908190208351815591830151600183015582015160028201805460ff1916911515919091179055606090910151600390910155610aea565b336000908152600860205260409020819055600b610aa660018361209c565b81548110610ab657610ab66120af565b6000918252602080832090910154338352600890915260408220600301805491929091610ae49084906120fb565b90915550505b60405181815233907fea32a03505fd9f04d664676d72295a86c5fb0465e69654751907ca305bc1d1c79060200160405180910390a250565b610b2c3382611450565b610b485760405162461bcd60e51b81526004016105639061210e565b6107988383836114af565b610b8060405180608001604052806000815260200160008152602001600015158152602001600081525090565b506001600160a01b0316600090815260086020908152604091829020825160808101845281548152600182015492810192909252600281015460ff16151592820192909252600390910154606082015290565b600060018210158015610be7575060058211155b610c235760405162461bcd60e51b815260206004820152600d60248201526c125b9d985b1a59081b195d995b609a1b6044820152606401610563565b600b610c3060018461209c565b81548110610c4057610c406120af565b90600052602060002001549050919050565b610798838383604051806020016040528060008152506111ec565b6000818152600260205260408120546001600160a01b03168061052a5760405162461bcd60e51b8152602060048201526018602482015277115490cdcc8c4e881a5b9d985b1a59081d1bdad95b88125160421b6044820152606401610563565b6060600a805480602002602001604051908101604052809291908181526020016000905b82821015610d4e576000848152602090819020604080516080810182526004860290920180546001600160a01b03168352600180820154848601526002820154928401929092526003015460608301529083529092019101610cf1565b50505050905090565b60006001600160a01b038216610dc15760405162461bcd60e51b815260206004820152602960248201527f4552433732313a2061646472657373207a65726f206973206e6f7420612076616044820152683634b21037bbb732b960b91b6064820152608401610563565b506001600160a01b031660009081526003602052604090205490565b610de5611613565b610def600061166d565b565b600b8181548110610e0157600080fd5b600091825260209091200154905081565b336000908152600860205260409020600281015460ff16610e455760405162461bcd60e51b81526004016105639061201c565b81816001016000828254610e5991906120fb565b909155505080546004190161101b573360009081526009602052604090205460ff16610ef957610e8b33600c546116bf565b3360008181526009602052604090819020805460ff19166001179055600c5490517fc5e5b314108c1f776c2302351b8278910ddb812b122b2717b1bc973146145e9a91610edb9190815260200190565b60405180910390a2600c8054906000610ef38361215b565b91905055505b6000600a8260010154610f0c9190612174565b610f1e90670de0b6b3a7640000612196565b90508015610fdd5760075460405163a9059cbb60e01b8152336004820152602481018390526001600160a01b039091169063a9059cbb906044016020604051808303816000875af1158015610f77573d6000803e3d6000fd5b505050506040513d601f19601f82011682018060405250810190610f9b91906120de565b506001820154604080519182526020820183905233917f5fb252336e85a30ebdcb52203366687453245c7e99bb9d0f5f468b12d18d06b3910160405180910390a25b610ff0338360000154846001015461184a565b503360009081526008602052604081208181556001810182905560028101805460ff19169055600301555b8054604080519182526020820184905233917f3d874470dba0fad010caa4b42a98890f3760e7f6cf8dbfe0db97a6a0f078031b910160405180910390a25050565b6060600180546105de9061204c565b61107633838361198c565b5050565b336000908152600860205260409020600281015460ff166110ad5760405162461bcd60e51b81526004016105639061201c565b818160010160008282546110c191906120fb565b909155505060018101546000906110da90600a90612174565b6110ec90670de0b6b3a7640000612196565b905080156111ab5760075460405163a9059cbb60e01b8152336004820152602481018390526001600160a01b039091169063a9059cbb906044016020604051808303816000875af1158015611145573d6000803e3d6000fd5b505050506040513d601f19601f8201168201806040525081019061116991906120de565b506001820154604080519182526020820183905233917f5fb252336e85a30ebdcb52203366687453245c7e99bb9d0f5f468b12d18d06b3910160405180910390a25b6111be338360000154846001015461184a565b50503360009081526008602052604081208181556001810182905560028101805460ff191690556003015550565b6111f63383611450565b6112125760405162461bcd60e51b81526004016105639061210e565b61121e84848484611a5a565b50505050565b600a818154811061123457600080fd5b600091825260209091206004909102018054600182015460028301546003909301546001600160a01b039092169350919084565b606061127382611383565b600061128a60408051602081019091526000815290565b905060008151116112aa57604051806020016040528060008152506112d5565b806112b484611a8d565b6040516020016112c59291906121ad565b6040516020818303038152906040525b9392505050565b6001600160a01b03918216600090815260056020908152604080832093909416825291909152205460ff1690565b611312611613565b6001600160a01b0381166113775760405162461bcd60e51b815260206004820152602660248201527f4f776e61626c653a206e6577206f776e657220697320746865207a65726f206160448201526564647265737360d01b6064820152608401610563565b6113808161166d565b50565b6000818152600260205260409020546001600160a01b03166113805760405162461bcd60e51b8152602060048201526018602482015277115490cdcc8c4e881a5b9d985b1a59081d1bdad95b88125160421b6044820152606401610563565b600081815260046020526040902080546001600160a01b0319166001600160a01b038416908117909155819061141782610c6d565b6001600160a01b03167f8c5be1e5ebec7d5bd14f71427d1e84f3dd0314c0f7b2291e5b200ac8c7c3b92560405160405180910390a45050565b60008061145c83610c6d565b9050806001600160a01b0316846001600160a01b03161480611483575061148381856112dc565b806114a75750836001600160a01b031661149c84610661565b6001600160a01b0316145b949350505050565b826001600160a01b03166114c282610c6d565b6001600160a01b0316146114e85760405162461bcd60e51b8152600401610563906121dc565b6001600160a01b03821661154a5760405162461bcd60e51b8152602060048201526024808201527f4552433732313a207472616e7366657220746f20746865207a65726f206164646044820152637265737360e01b6064820152608401610563565b826001600160a01b031661155d82610c6d565b6001600160a01b0316146115835760405162461bcd60e51b8152600401610563906121dc565b600081815260046020908152604080832080546001600160a01b03199081169091556001600160a01b0387811680865260038552838620805460001901905590871680865283862080546001019055868652600290945282852080549092168417909155905184937fddf252ad1be2c89b69c2b068fc378daa952ba7f163c4a11628f55a4df523b3ef91a4505050565b6006546001600160a01b03163314610def5760405162461bcd60e51b815260206004820181905260248201527f4f776e61626c653a2063616c6c6572206973206e6f7420746865206f776e65726044820152606401610563565b600680546001600160a01b038381166001600160a01b0319831681179093556040519116919082907f8be0079c531659141344cd1fd0a4f28419497f9722a3daafe3b4186f6b6457e090600090a35050565b6001600160a01b0382166117155760405162461bcd60e51b815260206004820181905260248201527f4552433732313a206d696e7420746f20746865207a65726f20616464726573736044820152606401610563565b6000818152600260205260409020546001600160a01b03161561177a5760405162461bcd60e51b815260206004820152601c60248201527f4552433732313a20746f6b656e20616c7265616479206d696e746564000000006044820152606401610563565b6000818152600260205260409020546001600160a01b0316156117df5760405162461bcd60e51b815260206004820152601c60248201527f4552433732313a20746f6b656e20616c7265616479206d696e746564000000006044820152606401610563565b6001600160a01b038216600081815260036020908152604080832080546001019055848352600290915280822080546001600160a01b0319168417905551839291907fddf252ad1be2c89b69c2b068fc378daa952ba7f163c4a11628f55a4df523b3ef908290a45050565b604080516080810182526001600160a01b038581168252602082018581529282018481524260608401908152600a8054600181018255600082905294517fc65a7bb8d6351c1cf70c95a316cc6a92839c986682d98bc35f958f4883f9d2a8600490960295860180546001600160a01b031916919095161790935593517fc65a7bb8d6351c1cf70c95a316cc6a92839c986682d98bc35f958f4883f9d2a9840155517fc65a7bb8d6351c1cf70c95a316cc6a92839c986682d98bc35f958f4883f9d2aa83015591517fc65a7bb8d6351c1cf70c95a316cc6a92839c986682d98bc35f958f4883f9d2ab90910155546064101561079857600a80548061195057611950612221565b60008281526020812060046000199093019283020180546001600160a01b03191681556001810182905560028101829055600301559055505050565b816001600160a01b0316836001600160a01b0316036119ed5760405162461bcd60e51b815260206004820152601960248201527f4552433732313a20617070726f766520746f2063616c6c6572000000000000006044820152606401610563565b6001600160a01b03838116600081815260056020908152604080832094871680845294825291829020805460ff191686151590811790915591519182527f17307eab39ab6107e8899845ad3d59bd9653f200f220920489ca2b5937696c31910160405180910390a3505050565b611a658484846114af565b611a7184848484611b20565b61121e5760405162461bcd60e51b815260040161056390612237565b60606000611a9a83611c21565b600101905060008167ffffffffffffffff811115611aba57611aba611ef7565b6040519080825280601f01601f191660200182016040528015611ae4576020820181803683370190505b5090508181016020015b600019016f181899199a1a9b1b9c1cb0b131b232b360811b600a86061a8153600a8504945084611aee57509392505050565b60006001600160a01b0384163b15611c1657604051630a85bd0160e11b81526001600160a01b0385169063150b7a0290611b64903390899088908890600401612289565b6020604051808303816000875af1925050508015611b9f575060408051601f3d908101601f19168201909252611b9c918101906122c6565b60015b611bfc573d808015611bcd576040519150601f19603f3d011682016040523d82523d6000602084013e611bd2565b606091505b508051600003611bf45760405162461bcd60e51b815260040161056390612237565b805181602001fd5b6001600160e01b031916630a85bd0160e11b1490506114a7565b506001949350505050565b60008072184f03e93ff9f4daa797ed6e38ed64bf6a1f0160401b8310611c605772184f03e93ff9f4daa797ed6e38ed64bf6a1f0160401b830492506040015b6d04ee2d6d415b85acef81000000008310611c8c576d04ee2d6d415b85acef8100000000830492506020015b662386f26fc100008310611caa57662386f26fc10000830492506010015b6305f5e1008310611cc2576305f5e100830492506008015b6127108310611cd657612710830492506004015b60648310611ce8576064830492506002015b600a831061052a5760010192915050565b6001600160e01b03198116811461138057600080fd5b600060208284031215611d2157600080fd5b81356112d581611cf9565b60005b83811015611d47578181015183820152602001611d2f565b50506000910152565b60008151808452611d68816020860160208601611d2c565b601f01601f19169290920160200192915050565b6020815260006112d56020830184611d50565b600060208284031215611da157600080fd5b5035919050565b80356001600160a01b0381168114611dbf57600080fd5b919050565b60008060408385031215611dd757600080fd5b611de083611da8565b946020939093013593505050565b600080600060608486031215611e0357600080fd5b611e0c84611da8565b9250611e1a60208501611da8565b9150604084013590509250925092565b600060208284031215611e3c57600080fd5b6112d582611da8565b602080825282518282018190526000919060409081850190868401855b82811015611ea557815180516001600160a01b03168552868101518786015285810151868601526060908101519085015260809093019290850190600101611e62565b5091979650505050505050565b801515811461138057600080fd5b60008060408385031215611ed357600080fd5b611edc83611da8565b91506020830135611eec81611eb2565b809150509250929050565b634e487b7160e01b600052604160045260246000fd5b60008060008060808587031215611f2357600080fd5b611f2c85611da8565b9350611f3a60208601611da8565b925060408501359150606085013567ffffffffffffffff80821115611f5e57600080fd5b818701915087601f830112611f7257600080fd5b813581811115611f8457611f84611ef7565b604051601f8201601f19908116603f01168101908382118183101715611fac57611fac611ef7565b816040528281528a6020848701011115611fc557600080fd5b82602086016020830137600060208483010152809550505050505092959194509250565b60008060408385031215611ffc57600080fd5b61200583611da8565b915061201360208401611da8565b90509250929050565b60208082526016908201527527379030b1ba34bb329033b0b6b29039b2b9b9b4b7b760511b604082015260600190565b600181811c9082168061206057607f821691505b60208210810361208057634e487b7160e01b600052602260045260246000fd5b50919050565b634e487b7160e01b600052601160045260246000fd5b8181038181111561052a5761052a612086565b634e487b7160e01b600052603260045260246000fd5b6000602082840312156120d757600080fd5b5051919050565b6000602082840312156120f057600080fd5b81516112d581611eb2565b8082018082111561052a5761052a612086565b6020808252602d908201527f4552433732313a2063616c6c6572206973206e6f7420746f6b656e206f776e6560408201526c1c881bdc88185c1c1c9bdd9959609a1b606082015260800190565b60006001820161216d5761216d612086565b5060010190565b60008261219157634e487b7160e01b600052601260045260246000fd5b500490565b808202811582820484141761052a5761052a612086565b600083516121bf818460208801611d2c565b8351908301906121d3818360208801611d2c565b01949350505050565b60208082526025908201527f4552433732313a207472616e736665722066726f6d20696e636f72726563742060408201526437bbb732b960d91b606082015260800190565b634e487b7160e01b600052603160045260246000fd5b60208082526032908201527f4552433732313a207472616e7366657220746f206e6f6e20455243373231526560408201527131b2b4bb32b91034b6b83632b6b2b73a32b960711b606082015260800190565b6001600160a01b03858116825284166020820152604081018390526080606082018190526000906122bc90830184611d50565b9695505050505050565b6000602082840312156122d857600080fd5b81516112d581611cf956fea2646970667358221220f780729550b4b108fc393d454718f6a23ae27b78448f800ab08e7f6b6a01a60c64736f6c63430008130033",
  "linkReferences": {},
  "deployedLinkReferences": {}
}